:10000000C6C051C2DFC0DEC0DDC0DCC0DBC0DAC0AC
:10001000D9C0D8C0D7C0D6C0D5C0D4C0D3C00902BB
:100020002200010100801909040000010300000002
:100030000921010100012223000705810308000AAC
:100040001201100100000008424231E100010102EA
:100050000001160343006100700073004600750044
:1000600063006B006500720012037200650062009D
:100070006F00750063006100730004030904000150
:10008000080000020C000003160000040B0000052D
:1000900022000006280001011700010204000103EC
:1000A0001800010419000105210001064C05020297
:1000B00011000203150002040900030210000303EB
:1000C0001A0003042C000305200003062402040385
:1000D000070004040F0005030E00050406000603D4
:1000E0000A00060413000703120007040D000705A9
:1000F0001F00080405000805230209041B00090766
:1001000021020A0406000B041C000C041D000C064E
:100110002D020D0414000D0638020E040D000F050B
:100120001E001005230011052702120524021206E5
:100130001F021405330015063700160525021805A1
:1001400024001A061F401C0525001E0526001E0659
:100150002D00210638002A0636022B061E022D0627
:100160002602330636007807370005010906A1018B
:10017000050719E029E71500250175019508810299
:10018000950175082565190029658100C0001124B5
:100190001FBECFE5D1E0DEBFCDBF10E0A0E6B0E0EE
:1001A000E0EAFAE002C005900D92A436B107D9F753
:1001B00020E0A4E6B0E001C01D92AD3AB207E1F73D
:1001C0003BD36CC41DCFCF93C62F2091600024FF7A
:1001D0000BC03091830028E8232720938300FC0183
:1001E000A4E8B0E08C2F04C02AE520936000F7CF8C
:1001F000815018F091919D93FBCF6C2F84E890E093
:100200003BD1CC5FC0936000CF910895CF93DF9333
:100210008091930018160CF0AEC090919000209140
:100220008F002D3219F090E880E09FC02AE52093DE
:1002300061008B30C1F7CCE0D0E0C91BD109C956B1
:10024000DF4F8881807609F081C01092810089811A
:1002500081110BC01092820081E890E0909392008F
:100260008093910090E882E079C0853021F48A8102
:100270008093940071C0863009F04CC08B8181302E
:1002800019F480E490E01DC0823049F48EE190E0E2
:10029000909392008093910090EC82E25FC0833053
:1002A00019F58A81811109C08AE790E09093920044
:1002B0008093910090EC84E051C0813049F488E64D
:1002C00090E0909392008093910090EC82E146C080
:1002D000823009F03FC082E590E0909392008093D5
:1002E000910090EC86E13AC0813249F480E390E0DD
:1002F000909392008093910090EC89E02FC082321D
:1003000049F58AE691E0909392008093910090ECF9
:1003100083E224C0883019F486E990E00AC089306D
:1003200021F48A818093960017C08A3049F481E8CD
:1003300090E0909392008093910090E881E00EC04D
:100340008B3051F483EC8093830006C0CE0108D239
:1003500090E804C090EC01C090E880E02F8121116A
:1003600004C02E81281708F4822F90936500809393
:100370006200109293008091610084FF45C08091DB
:1003800062008F3F09F440C0C82F893008F0C8E0F0
:100390008C1B809362002091650020FF02C0D3EC8B
:1003A00001C0DBE42F5F2093650080919100909164
:1003B000920026FD05C0FC01A9E7B0E02C2F0AC081
:1003C000A9E7B0E0FC012C2F215048F034913D9377
:1003D0003196FACF215018F031913D93FBCF8C0F1D
:1003E000911D90939200809391006C2F89E790E08B
:1003F00043D084E08C0FC83019F09FEF90936200D7
:10040000D0937800809361008AE096B3957031F4C0
:100410008150D9F71092940010928E00C1E08111A2
:10042000C0E0809164008C1729F0C11101C0C1D1D6
:10043000C0936400DF91CF91089585B7836085BF35
:100440008BB780648BBF83EC809383000895A82FC3
:10045000B92F80E090E041E050EA60956F5F58F47A
:100460002D9138EF82279795879510F0842795274F
:100470003F5FC8F3F3CF0895EADF8D939D9308950E
:10048000A6E088279927AA9569F00197E1F3B0992A
:10049000FCCFB09BFECF81E09927A6B3019611F067
:1004A000A570D9F70895CF93CFB7CF93B09BFECF68
:1004B000B09B0BC0B09B09C0B09B07C0B09B05C0F0
:1004C000B09B03C0B09B01C0D5C00F92DF93C09119
:1004D0009000DD27C956DF4F012EB09B03C0DF918E
:1004E0000F90E6CF2F930F931F934F932FEF4F6FE4
:1004F00006B300FB20F95F933F9350E03BE065C0FB
:1005000016B30126502950FDC89556B3012700FBAC
:1005100025F92F7306B3B1F05027102710FB26F9E9
:1005200006B22230F0F000C016B3012700FB27F915
:100530000126502906B22430E8F54F77206816B31B
:100540000000F6CF50274F7D206206B2102F00002A
:1005500000C006B300265029102710FB26F906B26A
:10056000E2CF4F7B06B3206400C0DACF01265029CA
:10057000157006B269F14E7F2160012F16B328C0B5
:10058000002650294D7F06B22260102F29C0012677
:1005900050294B7F06B22460012F2DC016B30126CF
:1005A0005029477F2860000006B22EC04F7E06B358
:1005B000206130C0422706B34993002650291027F6
:1005C00006B24FEF10FB20F9297F16B379F21570B0
:1005D00059F10126502906B2012700FB21F9237F9A
:1005E00006B371F2002650293150D0F006B2102720
:1005F00010FB22F9277E16B351F20126502901275C
:1006000000FB06B223F92F7C49F2000006B3102745
:1006100010FB24F90026502906B22F7939F270CF49
:1006200010E41ABF002719C03B503195C31BD040BE
:1006300010E41ABF0881033C09F10B34F9F0209152
:100640008E001981110F1213EDCF4A81441F093614
:1006500051F10D3211F0013E29F7009395003F91C1
:100660005F914F911F910F912F91DF910F90CAB71A
:10067000C6FD1CCFCF91CFBFCF91189500919500AB
:10068000002369F310919300112379F534307AF146
:100690003093930000938F00109190003BE0311B4A
:1006A0003093900024C0009193000130F4F40AE5E7
:1006B0004F7049F43091610034FD1AC0009361001D
:1006C000C8E7D0E019C03091600034FD11C000933C
:1006D0006000C3E8D0E010C0052710E000C021C0D2
:1006E000052710E0C89508BB14C03AE501C032EDFB
:1006F000032EC0E0D0E032E017B31560C09A08B313
:1007000017BB55E020E84FEF20FF052708BB2795D2
:1007100017951C3F28F700004552B0F720FF05272A
:10072000279508BB17951C3FB8F629913A9561F7B4
:100730000A7F10919400110F08BBC250D04011F0F5
:1007400010938E0010E41ABF016017B31A7F402F78
:100750004A7F54E05A95F1F708BB17BB48BB7FCFDF
:10076000FC0186E790E09093920080939100808155
:1007700080768032E1F48181813051F48091700083
:1007800080937600809171008093770082E00895D5
:10079000823041F485E790E090939200809391003D
:1007A00081E008958A3019F483818093750080E098
:1007B0000895DF92EF92FF920F931F93CF93DF93F1
:1007C00008E010E0C0E0D0E8DD2EDC0ED1BE58DE3F
:1007D0007C0184E3E81689E0F8060CF4CD2DD6956B
:1007E0000150110989F78FEF8C0F81BF0C2F10E09A
:1007F0000F5F1F4F21B730E0021713078CF040DE68
:100800008453994097FF03C09195819591098E1566
:100810009F0514F4C1B77C0181B78F5F81BFEACF18
:10082000C1BF61B780E090E0DF91CF911F910F9140
:10083000FF90EF90DF9024C180E090E019D18F3FCE
:1008400009F081BFB89A84E1E2EBF1EF3197F1F75B
:1008500000C000008150C1F7B8989EE088E10FB653
:10086000F894A89581BD0FBE91BDC19AC39AC49A50
:100870008BE080BFE2DD789414E002E088E2F82E9D
:10088000CAE0D0E0EE24E394A895C0DC8091740027
:100890008823D1F08091600084FFF6CF80917000B2
:1008A00080937600809171008093770062E086E704
:1008B00090E089DC809174008150809374001092E4
:1008C000710010927000E0CF08B602FEDDCF18BFB5
:1008D00010927300B19903C0E092730003C0B39B00
:1008E0000093730030917300313009F49CC020F004
:1008F000323009F498C09CC0809172008130A9F414
:1009000080916E008F5F80936E0080916F00880FE2
:1009100080936F0040916600509167004B30510505
:1009200088F18F5F80936F002DC0823081F5F09247
:1009300069008091660090916700BE0185D0FB013F
:10094000009719F04DE1480F01C047E240936A005B
:10095000CF01BE0179D0009719F04DE1480F01C0D9
:1009600047E240936B00CF01BE016ED0CB01BE01C8
:100970006BD010936800009711F0835E01C087E28E
:1009800080936C00109267001092660051C0811134
:100990004FC060916E00611104C010926700109208
:1009A000660080916600909167008E9750F11092DA
:1009B00067001092660070916F0020E040E0509157
:1009C00074008EE790E0FC01A491A7130AC0319651
:1009D000E491E61306C0FC013296249131964491CD
:1009E00052E00496F1E08A369F0769F72093710080
:1009F000409370005093740010926F0010926E003C
:100A000017C0E0916800EE2399F0E150E093680090
:100A1000F0E0E759FF4F80818093710010927000E1
:100A20000093740005C080917200882309F4AACF56
:100A30008091660090916700019690936700809383
:100A400066003093720020CFAA1BBB1B51E107C088
:100A5000AA1FBB1FA617B70710F0A61BB70B881F4E
:100A6000991F5A95A9F780959095BC01CD010895DD
:100A7000E199FECF1FBA8EBBE09A99278DB30895F6
:100A8000262FE199FECF1CBA1FBA8EBB2DBB0FB625
:100A9000F894E29AE19A0FBE01960895F894FFCF78
:040AA0005A5AFF009F
:00000001FF
